:10FC000001C0C2C0112484B790E8909361001092A3
:10FC10006100882361F0982F9A70923041F081FF43
:10FC200002C097EF94BF282E80E0D1D0E9C185E0D3
:10FC30008093810082E08093C00088E18093C100BE
:10FC40008CE08093C40086E08093C2008EE0BFD039
:10FC5000279A84E024E23DEF91E0309385002093E1
:10FC6000840096BBB09BFECF1F9AA8954091C00020
:10FC700047FD02C0815089F79ED0813479F49BD032
:10FC8000C82FABD0C23811F480E004C088E0C1387E
:10FC900009F083E089D080E187D0EECF823419F477
:10FCA00084E1A3D0F8CF853411F485E0FACF85350F
:10FCB00041F481D0082F7FD0182F000F111F8DD055
:10FCC000EACF863519F484E090D0DECF843609F08F
:10FCD00039C071D0C82FD0E0DC2FCC276CD0C82B16
:10FCE0006AD0D82E5E01B394E12CFF24F39447012F
:10FCF000EFEF8E1A9E0A5FD0F701808374018A1499
:10FD00009B04A9F76AD0F5E4DF1201C0FFCF50E0F1
:10FD100040E063E0C80138D07801C12CDD24D394E1
:10FD2000F601419151916F0161E0C7012DD0F2E0E0
:10FD3000EF0EF11C2297A1F750E040E065E0C8010A
:10FD400023D0A9CF843789F436D0C82FD0E0DC2F58
:10FD5000CC2731D0C82B2FD040D07801F701859126
:10FD60007F0122D02197D1F796CF853739F435D04E
:10FD70008EE11AD086E918D08AE08CCF813509F05F
:10FD80009ECF88E024D09BCFFC010A0167BFE89595
:10FD9000112407B600FCFDCF667029F0452B19F43D
:10FDA00081E187BFE89508959091C00095FFFCCF51
:10FDB0008093C60008958091C00087FFFCCF80919A
:10FDC000C00084FD01C0A8958091C6000895E0E6BA
:10FDD000F0E098E1908380830895EDDF803219F0A0
:10FDE00088E0F5DFFFCF84E1DFCFCF93C82FE3DFDB
:08FDF000C150E9F7CF91F1CFFA
:02FFFE000008F9
:040000030000FC00FD
:00000001FF
